{
    "contractName": "Illuminate",
    "abi": [
        {
            "inputs": [
                {
                    "internalType": "address",
                    "name": "swivelAddress",
                    "type": "address"
                }
            ],
            "stateMutability": "nonpayable",
            "type": "constructor"
        },
        {
            "anonymous": false,
            "inputs": [
                {
                    "indexed": true,
                    "internalType": "address",
                    "name": "underlying",
                    "type": "address"
                },
                {
                    "indexed": true,
                    "internalType": "uint256",
                    "name": "maturity",
                    "type": "uint256"
                },
                {
                    "indexed": false,
                    "internalType": "address",
                    "name": "swivel",
                    "type": "address"
                },
                {
                    "indexed": false,
                    "internalType": "address",
                    "name": "yield",
                    "type": "address"
                },
                {
                    "indexed": false,
                    "internalType": "address",
                    "name": "element",
                    "type": "address"
                },
                {
                    "indexed": true,
                    "internalType": "address",
                    "name": "illuminate",
                    "type": "address"
                }
            ],
            "name": "marketCreated",
            "type": "event"
        },
        {
            "inputs": [],
            "name": "admin",
            "outputs": [
                {
                    "internalType": "address",
                    "name": "",
                    "type": "address"
                }
            ],
            "stateMutability": "view",
            "type": "function"
        },
        {
            "inputs": [
                {
                    "internalType": "address",
                    "name": "underlying",
                    "type": "address"
                },
                {
                    "internalType": "uint256",
                    "name": "maturity",
                    "type": "uint256"
                },
                {
                    "internalType": "address",
                    "name": "swivel",
                    "type": "address"
                },
                {
                    "internalType": "address",
                    "name": "yield",
                    "type": "address"
                },
                {
                    "internalType": "address",
                    "name": "element",
                    "type": "address"
                },
                {
                    "internalType": "uint8",
                    "name": "decimals",
                    "type": "uint8"
                }
            ],
            "name": "createMarket",
            "outputs": [
                {
                    "internalType": "bool",
                    "name": "",
                    "type": "bool"
                }
            ],
            "stateMutability": "nonpayable",
            "type": "function"
        },
        {
            "inputs": [
                {
                    "internalType": "address",
                    "name": "underlying",
                    "type": "address"
                },
                {
                    "internalType": "uint256",
                    "name": "maturity",
                    "type": "uint256"
                },
                {
                    "internalType": "address",
                    "name": "balancerPool",
                    "type": "address"
                },
                {
                    "internalType": "bytes32",
                    "name": "poolID",
                    "type": "bytes32"
                },
                {
                    "internalType": "address",
                    "name": "elementToken",
                    "type": "address"
                },
                {
                    "internalType": "uint128",
                    "name": "amount",
                    "type": "uint128"
                },
                {
                    "internalType": "uint256",
                    "name": "minimumBought",
                    "type": "uint256"
                },
                {
                    "internalType": "uint256",
                    "name": "deadline",
                    "type": "uint256"
                }
            ],
            "name": "elementLend",
            "outputs": [
                {
                    "internalType": "uint256",
                    "name": "",
                    "type": "uint256"
                }
            ],
            "stateMutability": "nonpayable",
            "type": "function"
        },
        {
            "inputs": [
                {
                    "internalType": "address",
                    "name": "underlying",
                    "type": "address"
                },
                {
                    "internalType": "uint256",
                    "name": "maturity",
                    "type": "uint256"
                },
                {
                    "internalType": "uint256",
                    "name": "amount",
                    "type": "uint256"
                }
            ],
            "name": "elementMint",
            "outputs": [
                {
                    "internalType": "bool",
                    "name": "",
                    "type": "bool"
                }
            ],
            "stateMutability": "nonpayable",
            "type": "function"
        },
        {
            "inputs": [
                {
                    "internalType": "address",
                    "name": "underlying",
                    "type": "address"
                },
                {
                    "internalType": "uint256",
                    "name": "maturity",
                    "type": "uint256"
                }
            ],
            "name": "elementRedeem",
            "outputs": [
                {
                    "internalType": "bool",
                    "name": "",
                    "type": "bool"
                }
            ],
            "stateMutability": "nonpayable",
            "type": "function"
        },
        {
            "inputs": [],
            "name": "fyDAIOUT",
            "outputs": [
                {
                    "internalType": "uint128",
                    "name": "",
                    "type": "uint128"
                }
            ],
            "stateMutability": "view",
            "type": "function"
        },
        {
            "inputs": [
                {
                    "internalType": "address",
                    "name": "",
                    "type": "address"
                },
                {
                    "internalType": "uint256",
                    "name": "",
                    "type": "uint256"
                }
            ],
            "name": "markets",
            "outputs": [
                {
                    "internalType": "address",
                    "name": "swivel",
                    "type": "address"
                },
                {
                    "internalType": "address",
                    "name": "yield",
                    "type": "address"
                },
                {
                    "internalType": "address",
                    "name": "illuminate",
                    "type": "address"
                },
                {
                    "internalType": "address",
                    "name": "element",
                    "type": "address"
                }
            ],
            "stateMutability": "view",
            "type": "function"
        },
        {
            "inputs": [
                {
                    "internalType": "address",
                    "name": "underlying",
                    "type": "address"
                },
                {
                    "internalType": "uint256",
                    "name": "maturity",
                    "type": "uint256"
                },
                {
                    "internalType": "uint256",
                    "name": "amount",
                    "type": "uint256"
                }
            ],
            "name": "redeem",
            "outputs": [
                {
                    "internalType": "bool",
                    "name": "",
                    "type": "bool"
                }
            ],
            "stateMutability": "nonpayable",
            "type": "function"
        },
        {
            "inputs": [
                {
                    "internalType": "address",
                    "name": "underlying",
                    "type": "address"
                },
                {
                    "internalType": "uint256",
                    "name": "maturity",
                    "type": "uint256"
                },
                {
                    "internalType": "address",
                    "name": "yieldRouter",
                    "type": "address"
                },
                {
                    "components": [
                        {
                            "internalType": "bytes32",
                            "name": "key",
                            "type": "bytes32"
                        },
                        {
                            "internalType": "address",
                            "name": "maker",
                            "type": "address"
                        },
                        {
                            "internalType": "address",
                            "name": "underlying",
                            "type": "address"
                        },
                        {
                            "internalType": "bool",
                            "name": "vault",
                            "type": "bool"
                        },
                        {
                            "internalType": "bool",
                            "name": "exit",
                            "type": "bool"
                        },
                        {
                            "internalType": "uint256",
                            "name": "principal",
                            "type": "uint256"
                        },
                        {
                            "internalType": "uint256",
                            "name": "premium",
                            "type": "uint256"
                        },
                        {
                            "internalType": "uint256",
                            "name": "maturity",
                            "type": "uint256"
                        },
                        {
                            "internalType": "uint256",
                            "name": "expiry",
                            "type": "uint256"
                        }
                    ],
                    "internalType": "struct Hash.Order[]",
                    "name": "orders",
                    "type": "tuple[]"
                },
                {
                    "internalType": "uint256[]",
                    "name": "amounts",
                    "type": "uint256[]"
                },
                {
                    "components": [
                        {
                            "internalType": "uint8",
                            "name": "v",
                            "type": "uint8"
                        },
                        {
                            "internalType": "bytes32",
                            "name": "r",
                            "type": "bytes32"
                        },
                        {
                            "internalType": "bytes32",
                            "name": "s",
                            "type": "bytes32"
                        }
                    ],
                    "internalType": "struct Sig.Components[]",
                    "name": "signatures",
                    "type": "tuple[]"
                }
            ],
            "name": "swivelLend",
            "outputs": [
                {
                    "internalType": "uint256",
                    "name": "",
                    "type": "uint256"
                }
            ],
            "stateMutability": "nonpayable",
            "type": "function"
        },
        {
            "inputs": [
                {
                    "internalType": "address",
                    "name": "underlying",
                    "type": "address"
                },
                {
                    "internalType": "uint256",
                    "name": "maturity",
                    "type": "uint256"
                },
                {
                    "internalType": "uint256",
                    "name": "amount",
                    "type": "uint256"
                }
            ],
            "name": "swivelMint",
            "outputs": [
                {
                    "internalType": "bool",
                    "name": "",
                    "type": "bool"
                }
            ],
            "stateMutability": "nonpayable",
            "type": "function"
        },
        {
            "inputs": [
                {
                    "internalType": "address",
                    "name": "underlying",
                    "type": "address"
                },
                {
                    "internalType": "uint256",
                    "name": "maturity",
                    "type": "uint256"
                }
            ],
            "name": "swivelRedeem",
            "outputs": [
                {
                    "internalType": "bool",
                    "name": "",
                    "type": "bool"
                }
            ],
            "stateMutability": "nonpayable",
            "type": "function"
        },
        {
            "inputs": [],
            "name": "swivelRouter",
            "outputs": [
                {
                    "internalType": "address",
                    "name": "",
                    "type": "address"
                }
            ],
            "stateMutability": "view",
            "type": "function"
        },
        {
            "inputs": [
                {
                    "internalType": "address",
                    "name": "underlying",
                    "type": "address"
                },
                {
                    "internalType": "uint256",
                    "name": "maturity",
                    "type": "uint256"
                },
                {
                    "internalType": "address",
                    "name": "yieldPool",
                    "type": "address"
                },
                {
                    "internalType": "uint128",
                    "name": "amount",
                    "type": "uint128"
                }
            ],
            "name": "yieldLend",
            "outputs": [
                {
                    "internalType": "uint256",
                    "name": "",
                    "type": "uint256"
                }
            ],
            "stateMutability": "nonpayable",
            "type": "function"
        },
        {
            "inputs": [
                {
                    "internalType": "address",
                    "name": "underlying",
                    "type": "address"
                },
                {
                    "internalType": "uint256",
                    "name": "maturity",
                    "type": "uint256"
                },
                {
                    "internalType": "uint256",
                    "name": "amount",
                    "type": "uint256"
                }
            ],
            "name": "yieldMint",
            "outputs": [
                {
                    "internalType": "bool",
                    "name": "",
                    "type": "bool"
                }
            ],
            "stateMutability": "nonpayable",
            "type": "function"
        },
        {
            "inputs": [
                {
                    "internalType": "address",
                    "name": "underlying",
                    "type": "address"
                },
                {
                    "internalType": "uint256",
                    "name": "maturity",
                    "type": "uint256"
                }
            ],
            "name": "yieldRedeem",
            "outputs": [
                {
                    "internalType": "bool",
                    "name": "",
                    "type": "bool"
                }
            ],
            "stateMutability": "nonpayable",
            "type": "function"
        }
    ],
    "bytecode": "60a060405234801561001057600080fd5b506040516200367d3803806200367d8339810160408190526100319161005a565b60018054336001600160a01b031990911617905560601b6001600160601b031916608052610088565b60006020828403121561006b578081fd5b81516001600160a01b0381168114610081578182fd5b9392505050565b60805160601c6135c1620000bc600039600081816101c5015281816105490152818161124501526112ec01526135c16000f3fe60806040523480156200001157600080fd5b5060043610620001095760003560e01c80636a153a2511620000a3578063a2a91cf3116200006e578063a2a91cf314620002dd578063c1bb689f14620002f4578063c965bedd146200030b578063f851a440146200032257600080fd5b80636a153a25146200026b5780638ea550c2146200029857806392f9c41014620002af5780639580679d14620002c657600080fd5b80631cf5dbfa11620000e45780631cf5dbfa14620002005780632b83cccd14620002175780636523c896146200022e57806369a1b967146200025457600080fd5b806317b3bba7146200010e5780631966f11e1462000197578063198979eb14620001bf575b600080fd5b6200015f6200011f36600462001950565b6002602081815260009384526040808520909152918352912080546001820154928201546003909201546001600160a01b03918216938216928216911684565b604080516001600160a01b03958616815293851660208501529184169183019190915290911660608201526080015b60405180910390f35b620001ae620001a836600462001bce565b62000336565b60405190151581526020016200018e565b620001e77f000000000000000000000000000000000000000000000000000000000000000081565b6040516001600160a01b0390911681526020016200018e565b620001ae6200021136600462001950565b6200047d565b620001ae6200022836600462001bce565b62000627565b620002456200023f36600462001af4565b62000752565b6040519081526020016200018e565b620002456200026536600462001b79565b62000a44565b6000546200027f906001600160801b031681565b6040516001600160801b0390911681526020016200018e565b620001ae620002a936600462001950565b62000d4d565b620001ae620002c036600462001bce565b62000ed3565b620001ae620002d736600462001950565b62000f31565b62000245620002ee366004620019f3565b620010aa565b620001ae620003053660046200197c565b62001499565b620001ae6200031c36600462001bce565b62001732565b600154620001e7906001600160a01b031681565b6001600160a01b038381166000908152600260208181526040808420878552909152808320600381015492015490516323b872dd60e01b815292939182169291169082906323b872dd90620003949033903090899060040162001ddd565b602060405180830381600087803b158015620003af57600080fd5b505af1158015620003c4573d6000803e3d6000fd5b505050506040513d601f19601f82011682018060405250810190620003ea919062001c03565b506040516340c10f1960e01b8152336004820152602481018590526001600160a01b038216906340c10f19906044015b602060405180830381600087803b1580156200043557600080fd5b505af11580156200044a573d6000803e3d6000fd5b505050506040513d601f19601f8201168201806040525081019062000470919062001c03565b5060019695505050505050565b6001600160a01b0382811660009081526002602090815260408083208584529091528082205490516370a0823160e01b8152306004820152919283929116906370a082319060240160206040518083038186803b158015620004de57600080fd5b505afa158015620004f3573d6000803e3d6000fd5b505050506040513d601f19601f8201168201806040525081019062000519919062001ce9565b604051630aa7079760e11b81526001600160a01b03868116600483015260248201869052604482018390529192507f00000000000000000000000000000000000000000000000000000000000000009091169063154e0f2e90606401602060405180830381600087803b1580156200059057600080fd5b505af1158015620005a5573d6000803e3d6000fd5b505050506040513d601f19601f82011682018060405250810190620005cb919062001c03565b6200061d5760405162461bcd60e51b815260206004820152601860248201527f73776976656c20726564656d7074696f6e206661696c6564000000000000000060448201526064015b60405180910390fd5b5060019392505050565b6001600160a01b038381166000908152600260208181526040808420878552909152808320909101549051632770a7eb60e21b8152336004820152602481018590529192169085908290639dc29fac90604401602060405180830381600087803b1580156200069557600080fd5b505af1158015620006aa573d6000803e3d6000fd5b505050506040513d601f19601f82011682018060405250810190620006d0919062001c03565b6200071e5760405162461bcd60e51b815260206004820152601a60248201527f696c6c756d696e617465207472616e73666572206661696c6564000000000000604482015260640162000614565b60405163a9059cbb60e01b8152336004820152602481018590526001600160a01b0382169063a9059cbb906044016200041a565b6001600160a01b0388811660008181526002602081815260408084208d85529091528083209091015490516323b872dd60e01b81523360048201523060248201526001600160801b038816604482015291938c939116918a91906323b872dd90606401602060405180830381600087803b158015620007d057600080fd5b505af1158015620007e5573d6000803e3d6000fd5b505050506040513d601f19601f820116820180604052508101906200080b919062001c03565b5060405163095ea7b360e01b81526001600160a01b038b81166004830152600019602483015284169063095ea7b390604401602060405180830381600087803b1580156200085857600080fd5b505af11580156200086d573d6000803e3d6000fd5b505050506040513d601f19601f8201168201806040525081019062000893919062001c03565b506040805160808101825230808252600060208084018290528385019290925260608301819052835160c081019094528c845291929081018281526020018f6001600160a01b031681526020018b6001600160a01b031681526020018a6001600160801b031681526020016040518060600160405280604081526020016200354c6040913990526040516352bbbe2960e01b81529091506000906001600160a01b038516906352bbbe29906200095490859087908e908e9060040162001efc565b602060405180830381600087803b1580156200096f57600080fd5b505af115801562000984573d6000803e3d6000fd5b505050506040513d601f19601f82011682018060405250810190620009aa919062001ce9565b6040516340c10f1960e01b8152336004820152602481018290529091506001600160a01b038616906340c10f1990604401602060405180830381600087803b158015620009f657600080fd5b505af115801562000a0b573d6000803e3d6000fd5b505050506040513d601f19601f8201168201806040525081019062000a31919062001c03565b509e9d5050505050505050505050505050565b6001600160a01b0384811660008181526002602081815260408084208985529091528083209091015490516323b872dd60e01b81523360048201523060248201526001600160801b0386166044820152919388939116918691906323b872dd90606401602060405180830381600087803b15801562000ac257600080fd5b505af115801562000ad7573d6000803e3d6000fd5b505050506040513d601f19601f8201168201806040525081019062000afd919062001c03565b5060405163095ea7b360e01b81526001600160a01b038781166004830152600019602483015284169063095ea7b390604401602060405180830381600087803b15801562000b4a57600080fd5b505af115801562000b5f573d6000803e3d6000fd5b505050506040513d601f19601f8201168201806040525081019062000b85919062001c03565b506040516304f9ef2360e21b81526001600160801b03861660048201526000906001600160a01b038316906313e7bc8c9060240160206040518083038186803b15801562000bd257600080fd5b505afa15801562000be7573d6000803e3d6000fd5b505050506040513d601f19601f8201168201806040525081019062000c0d919062001cca565b60405163fe2846b160e01b81523060048201526001600160801b038083166024830152881660448201529091506000906001600160a01b0384169063fe2846b190606401602060405180830381600087803b15801562000c6c57600080fd5b505af115801562000c81573d6000803e3d6000fd5b505050506040513d601f19601f8201168201806040525081019062000ca7919062001cca565b6040516340c10f1960e01b81523360048201526001600160801b03821660248201529091506001600160a01b038516906340c10f1990604401602060405180830381600087803b15801562000cfb57600080fd5b505af115801562000d10573d6000803e3d6000fd5b505050506040513d601f19601f8201168201806040525081019062000d36919062001c03565b506001600160801b03169998505050505050505050565b6001600160a01b0382811660009081526002602081815260408084208685529091528083209091015490516370a0823160e01b815230600482015291921690829082906370a082319060240160206040518083038186803b15801562000db257600080fd5b505afa15801562000dc7573d6000803e3d6000fd5b505050506040513d601f19601f8201168201806040525081019062000ded919062001ce9565b905080826001600160a01b0316630e6dfcd53030856040518463ffffffff1660e01b815260040162000e229392919062001ddd565b602060405180830381600087803b15801562000e3d57600080fd5b505af115801562000e52573d6000803e3d6000fd5b505050506040513d601f19601f8201168201806040525081019062000e78919062001ce9565b101562000ec85760405162461bcd60e51b815260206004820152601760248201527f7969656c6420726564656d7074696f6e206661696c6564000000000000000000604482015260640162000614565b506001949350505050565b6001600160a01b038381166000908152600260208181526040808420878552909152808320600181015492015490516323b872dd60e01b815292939182169291169082906323b872dd90620003949033903090899060040162001ddd565b6001600160a01b0382811660009081526002602090815260408083208584529091528082206003015490516370a0823160e01b815230600482015291921690829082906370a082319060240160206040518083038186803b15801562000f9657600080fd5b505afa15801562000fab573d6000803e3d6000fd5b505050506040513d601f19601f8201168201806040525081019062000fd1919062001ce9565b60405163884e17f360e01b81526004810182905230602482015290915081906001600160a01b0384169063884e17f390604401602060405180830381600087803b1580156200101f57600080fd5b505af115801562001034573d6000803e3d6000fd5b505050506040513d601f19601f820116820180604052508101906200105a919062001ce9565b101562000ec85760405162461bcd60e51b815260206004820152601960248201527f656c656d656e7420726564656d7074696f6e206661696c656400000000000000604482015260640162000614565b6001600160a01b03808a1660009081526002602081815260408084208d8552909152822001549091168a8280805b8a811015620011a45760008c8c838181106200110457634e487b7160e01b600052603260045260246000fd5b905061012002018036038101906200111d919062001c29565b905060008b8b848181106200114257634e487b7160e01b600052603260045260246000fd5b905060200201359050808562001159919062002007565b94508160a001518260c001518262001172919062002043565b6200117e919062002022565b6200118a908562002007565b9350505080806200119b9062002065565b915050620010d8565b506040516323b872dd60e01b81526001600160a01b038416906323b872dd90620011d79033903090879060040162001ddd565b602060405180830381600087803b158015620011f257600080fd5b505af115801562001207573d6000803e3d6000fd5b505050506040513d601f19601f820116820180604052508101906200122d919062001c03565b5060405163095ea7b360e01b81526001600160a01b037f0000000000000000000000000000000000000000000000000000000000000000811660048301526024820184905284169063095ea7b390604401602060405180830381600087803b1580156200129957600080fd5b505af1158015620012ae573d6000803e3d6000fd5b505050506040513d601f19601f82011682018060405250810190620012d4919062001c03565b50604051631a4289eb60e31b81526001600160a01b037f0000000000000000000000000000000000000000000000000000000000000000169063d2144f58906200132d908e908e908e908e908e908e9060040162001e01565b602060405180830381600087803b1580156200134857600080fd5b505af11580156200135d573d6000803e3d6000fd5b505050506040513d601f19601f8201168201806040525081019062001383919062001c03565b620013c95760405162461bcd60e51b81526020600482015260156024820152741cddda5d995b081b195b991a5b99c819985a5b1959605a1b604482015260640162000614565b6000620013d98f8f8f8562000a44565b90506001600160a01b0385166340c10f1933620013f7848762002007565b6040516001600160e01b031960e085901b1681526001600160a01b0390921660048301526024820152604401602060405180830381600087803b1580156200143e57600080fd5b505af115801562001453573d6000803e3d6000fd5b505050506040513d601f19601f8201168201806040525081019062001479919062001c03565b5062001486818462002007565b9f9e505050505050505050505050505050565b6001546000906001600160a01b0316338114620014f05760405162461bcd60e51b815260206004820152601460248201527339b2b73232b91036bab9ba1031329030b236b4b760611b604482015260640162000614565b6000888885604051620015039062001873565b6001600160a01b039093168352602083019190915260a060408301819052600a9083015269696c6c756d696e61746560b01b60c083015260e0606083018190526003908301526212531360ea1b61010083015260ff16608082015261012001604051809103906000f0801580156200157f573d6000803e3d6000fd5b5090506040518060800160405280886001600160a01b03168152602001876001600160a01b03168152602001866001600160a01b03168152602001826001600160a01b0316815250600260008b6001600160a01b03166001600160a01b0316815260200190815260200160002060008a815260200190815260200160002060008201518160000160006101000a8154816001600160a01b0302191690836001600160a01b0316021790555060208201518160010160006101000a8154816001600160a01b0302191690836001600160a01b0316021790555060408201518160020160006101000a8154816001600160a01b0302191690836001600160a01b0316021790555060608201518160030160006101000a8154816001600160a01b0302191690836001600160a01b03160217905550905050806001600160a01b0316888a6001600160a01b03167ff3ae95181c8ea53a0c4c4cf1c312c2703ad6b0c858f00b97c5ca7e9e27f797088a8a8a6040516200171b939291906001600160a01b0393841681529183166020830152909116604082015260600190565b60405180910390a450600198975050505050505050565b6001600160a01b03838116600090815260026020818152604080842087855290915280832091820154915490516323b872dd60e01b81529293918216929116906323b872dd906200178c9033903090889060040162001ddd565b602060405180830381600087803b158015620017a757600080fd5b505af1158015620017bc573d6000803e3d6000fd5b505050506040513d601f19601f82011682018060405250810190620017e2919062001c03565b506040516340c10f1960e01b8152336004820152602481018490526001600160a01b038216906340c10f1990604401602060405180830381600087803b1580156200182c57600080fd5b505af115801562001841573d6000803e3d6000fd5b505050506040513d601f19601f8201168201806040525081019062001867919062001c03565b50600195945050505050565b61148a80620020c283390190565b80356001600160a01b03811681146200189957600080fd5b919050565b60008083601f840112620018b0578182fd5b50813567ffffffffffffffff811115620018c8578182fd5b602083019150836020606083028501011115620018e457600080fd5b9250929050565b60008083601f840112620018fd578182fd5b50813567ffffffffffffffff81111562001915578182fd5b6020830191508360208260051b8501011115620018e457600080fd5b8035620018998162002099565b803560ff811681146200189957600080fd5b6000806040838503121562001963578182fd5b6200196e8362001881565b946020939093013593505050565b60008060008060008060c0878903121562001995578182fd5b620019a08762001881565b955060208701359450620019b76040880162001881565b9350620019c76060880162001881565b9250620019d76080880162001881565b9150620019e760a088016200193e565b90509295509295509295565b600080600080600080600080600060c08a8c03121562001a11578283fd5b62001a1c8a62001881565b985060208a0135975062001a3360408b0162001881565b965060608a013567ffffffffffffffff8082111562001a50578485fd5b818c0191508c601f83011262001a64578485fd5b81358181111562001a73578586fd5b8d60206101208302850101111562001a89578586fd5b6020830198508097505060808c013591508082111562001aa7578485fd5b62001ab58d838e01620018eb565b909650945060a08c013591508082111562001ace578384fd5b5062001add8c828d016200189e565b915080935050809150509295985092959850929598565b600080600080600080600080610100898b03121562001b11578384fd5b62001b1c8962001881565b97506020890135965062001b3360408a0162001881565b95506060890135945062001b4a60808a0162001881565b935060a089013562001b5c81620020ab565b979a969950949793969295929450505060c08201359160e0013590565b6000806000806080858703121562001b8f578384fd5b62001b9a8562001881565b93506020850135925062001bb16040860162001881565b9150606085013562001bc381620020ab565b939692955090935050565b60008060006060848603121562001be3578081fd5b62001bee8462001881565b95602085013595506040909401359392505050565b60006020828403121562001c15578081fd5b815162001c228162002099565b9392505050565b6000610120828403121562001c3c578081fd5b62001c4662001fce565b8235815262001c586020840162001881565b602082015262001c6b6040840162001881565b604082015262001c7e6060840162001931565b606082015262001c916080840162001931565b608082015260a083013560a082015260c083013560c082015260e083013560e08201526101008084013581830152508091505092915050565b60006020828403121562001cdc578081fd5b815162001c2281620020ab565b60006020828403121562001cfb578081fd5b5051919050565b81835260006020808501945082825b8581101562001d4f5760ff62001d27836200193e565b1687528183013583880152604080830135908801526060968701969091019060010162001d11565b509495945050505050565b81835260006001600160fb1b0383111562001d73578081fd5b8260051b80836020870137939093016020019283525090919050565b60008151808452815b8181101562001db65760208185018101518683018201520162001d98565b8181111562001dc85782602083870101525b50601f01601f19169290920160200192915050565b6001600160a01b039384168152919092166020820152604081019190915260600190565b606080825281810187905260009060808084018a845b8b81101562001ebf5781358352602062001e3381840162001881565b6001600160a01b031690840152604062001e4f83820162001881565b6001600160a01b03169084015262001e6982860162001931565b15158584015262001e7c82850162001931565b15158484015260a0828101359084015260c0808301359084015260e080830135908401526101008083013590840152610120928301929091019060010162001e17565b5050848103602086015262001ed681898b62001d5a565b92505050828103604084015262001eef81858762001d02565b9998505050505050505050565b60e08152845160e0820152600060208601516002811062001f2b57634e487b7160e01b82526021600452602482fd5b61010083015260408601516001600160a01b03908116610120840152606087015116610140830152608086015161016083015260a086015160c061018084015262001f7b6101a084018262001d8f565b91505062001fbc602083018680516001600160a01b039081168352602080830151151590840152604080830151909116908301526060908101511515910152565b60a082019390935260c0015292915050565b604051610120810167ffffffffffffffff811182821017156200200157634e487b7160e01b600052604160045260246000fd5b60405290565b600082198211156200201d576200201d62002083565b500190565b6000826200203e57634e487b7160e01b81526012600452602481fd5b500490565b600081600019048311821515161562002060576200206062002083565b500290565b60006000198214156200207c576200207c62002083565b5060010190565b634e487b7160e01b600052601160045260246000fd5b8015158114620020a857600080fd5b50565b6001600160801b0381168114620020a857600080fdfe6101006040523480156200001257600080fd5b506040516200148a3803806200148a833981016040819052620000359162000296565b8282828282828260049080519060200190620000539291906200013d565b508151620000699060059060208501906200013d565b5080600260006101000a81548160ff021916908360ff160217905550505050620000ba83604051806040016040528060018152602001603160f81b8152504630620000e660201b620008c71760201c565b60805250505033606090811b60a0529490941b6001600160601b03191660c052505060e0525062000394565b8351602094850120835193850193909320604080517f8b73c3c69bb8fe3d512ecc4cf759cc79239f7b179b0ffacaa9a75d522b39400f815295860194909452928401929092526060830152608082015260a0902090565b8280546200014b9062000341565b90600052602060002090601f0160209004810192826200016f5760008555620001ba565b82601f106200018a57805160ff1916838001178555620001ba565b82800160010185558215620001ba579182015b82811115620001ba5782518255916020019190600101906200019d565b50620001c8929150620001cc565b5090565b5b80821115620001c85760008155600101620001cd565b600082601f830112620001f4578081fd5b81516001600160401b03808211156200021157620002116200037e565b604051601f8301601f19908116603f011681019082821181831017156200023c576200023c6200037e565b8160405283815260209250868385880101111562000258578485fd5b8491505b838210156200027b57858201830151818301840152908201906200025c565b838211156200028c57848385830101525b9695505050505050565b600080600080600060a08688031215620002ae578081fd5b85516001600160a01b0381168114620002c5578182fd5b6020870151604088015191965094506001600160401b0380821115620002e9578283fd5b620002f789838a01620001e3565b945060608801519150808211156200030d578283fd5b506200031c88828901620001e3565b925050608086015160ff8116811462000333578182fd5b809150509295509295909350565b600181811c908216806200035657607f821691505b602082108114156200037857634e487b7160e01b600052602260045260246000fd5b50919050565b634e487b7160e01b600052604160045260246000fd5b60805160a05160601c60c05160601c60e0516110a1620003e9600039600061018301526000610202015260008181610340015281816104f601526105890152600081816102cb01526107a101526110a16000f3fe608060405234801561001057600080fd5b50600436106101215760003560e01c806370a08231116100ad578063a9059cbb11610071578063a9059cbb146102b3578063c2fb26a6146102c6578063d505accf146102ed578063dd62ed3e14610302578063f851a4401461033b57600080fd5b806370a082311461023c5780637ecebe001461026557806395d89b41146102855780639dc29fac1461028d578063a457c2d7146102a057600080fd5b806323b872dd116100f457806323b872dd146101a5578063313ce567146101b857806339509351146101d757806340c10f19146101ea5780636f307dc3146101fd57600080fd5b806306fdde0314610126578063095ea7b31461014457806318160ddd14610167578063204f83f91461017e575b600080fd5b61012e610362565b60405161013b9190610f7d565b60405180910390f35b610157610152366004610f54565b6103f0565b604051901515815260200161013b565b61017060035481565b60405190815260200161013b565b6101707f000000000000000000000000000000000000000000000000000000000000000081565b6101576101b3366004610ea8565b610406565b6002546101c59060ff1681565b60405160ff909116815260200161013b565b6101576101e5366004610f54565b6104bb565b6101576101f8366004610f54565b6104f2565b6102247f000000000000000000000000000000000000000000000000000000000000000081565b6040516001600160a01b03909116815260200161013b565b61017061024a366004610e55565b6001600160a01b031660009081526020819052604090205490565b610170610273366004610e55565b60066020526000908152604090205481565b61012e610578565b61015761029b366004610f54565b610585565b6101576102ae366004610f54565b610601565b6101576102c1366004610f54565b610690565b6101707f000000000000000000000000000000000000000000000000000000000000000081565b6103006102fb366004610ee3565b61069d565b005b610170610310366004610e76565b6001600160a01b03918216600090815260016020908152604080832093909416825291909152205490565b6102247f000000000000000000000000000000000000000000000000000000000000000081565b6004805461036f90610fff565b80601f016020809104026020016040519081016040528092919081815260200182805461039b90610fff565b80156103e85780601f106103bd576101008083540402835291602001916103e8565b820191906000526020600020905b8154815290600101906020018083116103cb57829003601f168201915b505050505081565b60006103fd33848461091e565b50600192915050565b6000610413848484610a42565b6001600160a01b03841660009081526001602090815260408083203384529091529020548281101561049c5760405162461bcd60e51b815260206004820152602760248201527f6572633230207472616e7366657220616d6f756e74206578636565647320616c6044820152666c6f77616e636560c81b60648201526084015b60405180910390fd5b6104b085336104ab8685610fe8565b61091e565b506001949350505050565b3360008181526001602090815260408083206001600160a01b038716845290915281205490916103fd9185906104ab908690610fd0565b60007f0000000000000000000000000000000000000000000000000000000000000000336001600160a01b038216146105645760405162461bcd60e51b815260206004820152601460248201527339b2b73232b91036bab9ba1031329030b236b4b760611b6044820152606401610493565b61056e8484610c16565b5060019392505050565b6005805461036f90610fff565b60007f0000000000000000000000000000000000000000000000000000000000000000336001600160a01b038216146105f75760405162461bcd60e51b815260206004820152601460248201527339b2b73232b91036bab9ba1031329030b236b4b760611b6044820152606401610493565b61056e8484610cf5565b3360009081526001602090815260408083206001600160a01b0386168452909152812054828110156106815760405162461bcd60e51b8152602060048201526024808201527f65726332302064656372656173656420616c6c6f77616e63652062656c6f77206044820152637a65726f60e01b6064820152608401610493565b61056e33856104ab8685610fe8565b60006103fd338484610a42565b428410156106ed5760405162461bcd60e51b815260206004820152601860248201527f65726332363132206578706972656420646561646c696e6500000000000000006044820152606401610493565b6001600160a01b03871660009081526006602052604081208054610794918a918a918a91908661071c8361103a565b90915550604080517f80772249b4aef1688b30651778f4249b05cb73b517d98482439b9d8999b306026020808301919091526001600160a01b0396871682840152949095166060860152608085019290925260a084015260c08084018a90528151808503909101815260e09093019052815191012090565b60405161190160f01b81527f0000000000000000000000000000000000000000000000000000000000000000600282015260228101829052604290209091506000906040805160008082526020820180845284905260ff89169282019290925260608101879052608081018690529192509060019060a0016020604051602081039080840390855afa15801561082e573d6000803e3d6000fd5b5050604051601f1901519150506001600160a01b038116158015906108645750896001600160a01b0316816001600160a01b0316145b6108b05760405162461bcd60e51b815260206004820152601960248201527f6572633236313220696e76616c6964207369676e6174757265000000000000006044820152606401610493565b6108bb8a8a8a61091e565b50505050505050505050565b8351602094850120835193850193909320604080517f8b73c3c69bb8fe3d512ecc4cf759cc79239f7b179b0ffacaa9a75d522b39400f815295860194909452928401929092526060830152608082015260a0902090565b6001600160a01b0383166109805760405162461bcd60e51b815260206004820152602360248201527f657263323020617070726f76652066726f6d20746865207a65726f206164647260448201526265737360e81b6064820152608401610493565b6001600160a01b0382166109e05760405162461bcd60e51b815260206004820152602160248201527f657263323020617070726f766520746f20746865207a65726f206164647265736044820152607360f81b6064820152608401610493565b6001600160a01b0383811660008181526001602090815260408083209487168084529482529182902085905590518481527f8c5be1e5ebec7d5bd14f71427d1e84f3dd0314c0f7b2291e5b200ac8c7c3b92591015b60405180910390a3505050565b6001600160a01b038316610aa45760405162461bcd60e51b8152602060048201526024808201527f6572633230207472616e736665722066726f6d20746865207a65726f206164646044820152637265737360e01b6064820152608401610493565b6001600160a01b038216610b055760405162461bcd60e51b815260206004820152602260248201527f6572633230207472616e7366657220746f20746865207a65726f206164647265604482015261737360f01b6064820152608401610493565b6001600160a01b03831660009081526020819052604090205481811015610b7c5760405162461bcd60e51b815260206004820152602560248201527f6572633230207472616e7366657220616d6f756e7420657863656564732062616044820152646c616e636560d81b6064820152608401610493565b610b868282610fe8565b6001600160a01b038086166000908152602081905260408082209390935590851681529081208054849290610bbc908490610fd0565b92505081905550826001600160a01b0316846001600160a01b03167fddf252ad1be2c89b69c2b068fc378daa952ba7f163c4a11628f55a4df523b3ef84604051610c0891815260200190565b60405180910390a350505050565b6001600160a01b038216610c6c5760405162461bcd60e51b815260206004820152601e60248201527f6572633230206d696e7420746f20746865207a65726f206164647265737300006044820152606401610493565b8060036000828254610c7e9190610fd0565b90915550506001600160a01b03821660009081526020819052604081208054839290610cab908490610fd0565b90915550506040518181526001600160a01b038316906000907fddf252ad1be2c89b69c2b068fc378daa952ba7f163c4a11628f55a4df523b3ef9060200160405180910390a35050565b6001600160a01b038216610d4b5760405162461bcd60e51b815260206004820181905260248201527f6572633230206275726e2066726f6d20746865207a65726f20616464726573736044820152606401610493565b6001600160a01b03821660009081526020819052604090205481811015610dbe5760405162461bcd60e51b815260206004820152602160248201527f6572633230206275726e20616d6f756e7420657863656564732062616c616e636044820152606560f81b6064820152608401610493565b610dc88282610fe8565b6001600160a01b03841660009081526020819052604081209190915560038054849290610df6908490610fe8565b90915550506040518281526000906001600160a01b038516907fddf252ad1be2c89b69c2b068fc378daa952ba7f163c4a11628f55a4df523b3ef90602001610a35565b80356001600160a01b0381168114610e5057600080fd5b919050565b600060208284031215610e66578081fd5b610e6f82610e39565b9392505050565b60008060408385031215610e88578081fd5b610e9183610e39565b9150610e9f60208401610e39565b90509250929050565b600080600060608486031215610ebc578081fd5b610ec584610e39565b9250610ed360208501610e39565b9150604084013590509250925092565b600080600080600080600060e0888a031215610efd578283fd5b610f0688610e39565b9650610f1460208901610e39565b95506040880135945060608801359350608088013560ff81168114610f37578384fd5b9699959850939692959460a0840135945060c09093013592915050565b60008060408385031215610f66578182fd5b610f6f83610e39565b946020939093013593505050565b6000602080835283518082850152825b81811015610fa957858101830151858201604001528201610f8d565b81811115610fba5783604083870101525b50601f01601f1916929092016040019392505050565b60008219821115610fe357610fe3611055565b500190565b600082821015610ffa57610ffa611055565b500390565b600181811c9082168061101357607f821691505b6020821081141561103457634e487b7160e01b600052602260045260246000fd5b50919050565b600060001982141561104e5761104e611055565b5060010190565b634e487b7160e01b600052601160045260246000fdfea264697066735822122000742163ee5c1f61e25e9f6430a09afe9e778c8364ed458e7f25d4feb6f4999364736f6c6343000804003330783030303030303030303030303030303030303030303030303030303030303030303030303030303030303030303030303030303030303030303030303030a2646970667358221220c3b97bcda8e5d006a522e97ef526e105de4bab6ed38eee4621eafeb8e3a66a7f64736f6c63430008040033",
    "sourcePath": "c:/Users/Julian/Documents/GitHub/illuminate/Illuminate.sol",
    "compiler": {
        "name": "solc",
        "version": "0.8.4+commit.c7e474f2"
    },
    "functionHashes": {
        "admin()": "f851a440",
        "createMarket(address,uint256,address,address,address,uint8)": "c1bb689f",
        "elementLend(address,uint256,address,bytes32,address,uint128,uint256,uint256)": "6523c896",
        "elementMint(address,uint256,uint256)": "1966f11e",
        "elementRedeem(address,uint256)": "9580679d",
        "fyDAIOUT()": "6a153a25",
        "markets(address,uint256)": "17b3bba7",
        "redeem(address,uint256,uint256)": "2b83cccd",
        "swivelLend(address,uint256,address,(bytes32,address,address,bool,bool,uint256,uint256,uint256,uint256)[],uint256[],(uint8,bytes32,bytes32)[])": "a2a91cf3",
        "swivelMint(address,uint256,uint256)": "c965bedd",
        "swivelRedeem(address,uint256)": "1cf5dbfa",
        "swivelRouter()": "198979eb",
        "yieldLend(address,uint256,address,uint128)": "69a1b967",
        "yieldMint(address,uint256,uint256)": "92f9c410",
        "yieldRedeem(address,uint256)": "8ea550c2"
    },
    "gasEstimates": {
        "creation": {
            "codeDepositCost": "2752200",
            "executionCost": "infinite",
            "totalCost": "infinite"
        },
        "external": {
            "admin()": "1125",
            "createMarket(address,uint256,address,address,address,uint8)": "infinite",
            "elementLend(address,uint256,address,bytes32,address,uint128,uint256,uint256)": "infinite",
            "elementMint(address,uint256,uint256)": "infinite",
            "elementRedeem(address,uint256)": "infinite",
            "fyDAIOUT()": "1060",
            "markets(address,uint256)": "3911",
            "redeem(address,uint256,uint256)": "infinite",
            "swivelLend(address,uint256,address,(bytes32,address,address,bool,bool,uint256,uint256,uint256,uint256)[],uint256[],(uint8,bytes32,bytes32)[])": "infinite",
            "swivelMint(address,uint256,uint256)": "infinite",
            "swivelRedeem(address,uint256)": "infinite",
            "swivelRouter()": "infinite",
            "yieldLend(address,uint256,address,uint128)": "infinite",
            "yieldMint(address,uint256,uint256)": "infinite",
            "yieldRedeem(address,uint256)": "infinite"
        }
    }
}